:100000000C9419010C9443010C9443010C9443018A
:100010000C9443010C9443010C9443010C94430150
:100020000C9443010C9443010C9443010C94430140
:100030000C9443010C9443010C9443010C94430130
:100040000C9443010C9443010C9443010C94430120
:100050000C9443010C9443010C9443010C94CE0482
:100060000C9443010C94F7060C94E7070C9443019D
:100070000C9443010C9443010C9443010C944301F0
:100080000C9443010C9443010C9443010C944301E0
:100090000C942B070C9426080C9443010C944301F8
:1000A0000C9443010C9443010C9443010C944301C0
:1000B0000C9443010C9443010C9443010C944301B0
:1000C0000C9443010C9443010C9443010C945F077E
:1000D0000C9465080C9443010C9493070C94A408A9
:1000E0000C94430127042A041D04210461042E04F6
:1000F000320438043C04400446044A044E046104BB
:10010000540458045C04AD05B205B705C1053A06B0
:10011000CB05D305DB05E505EF05F9050806120655
:100120003A061C06260630060000090A02080B0CD7
:100130000D0706030401000000000000000000009D
:1001400000000000000000000000000000000000AF
:100150000000000011100F0000000000000000006F
:10016000000000000000000000000000000001028C
:1001700010202008081020401020408002010201B9
:100180000804020101020408102040808040201071
:1001900008040201800402018040201008040201CA
:1001A0000804020101020408102040800102040832
:1001B000102040800505050507050808080802020B
:1001C00002020A0A080804040404010101010101F1
:1001D00001010303030303030303040707070C0CD4
:1001E0000C0C0C0C0C0C020202020606060606069B
:1001F00006060B0B0B0B0B0B0B0B00002200250054
:1002000028002B002E0031003400020100000501FF
:1002100008010B0100002100240027002A002D0006
:100220003000330001010000040107010A01A601AA
:100230006B0911241FBECFEFD1E2DEBFCDBF12E0AC
:10024000A0E0B2E0E6E3F6E100E00BBF02C00790F9
:100250000D92A031B107D9F727E0A0E1B2E001C0CB
:100260001D92AD37B207E1F711E0C9E1D1E004C05A
:100270002197FE010E94EA0AC731D107C9F70E94FF
:10028000BB0A0C94190B0C94000008950F931F9354
:10029000CF93DF9300D0CDB7DEB780E192E00E942C
:1002A000B102811103C019821A8211C081E08093CA
:1002B0005A0400915C0410915D04B80180E192E061
:1002C0000E94F301F8018081898381818A830981F9
:1002D0001A810F3F110509F02CF417FF05C000E04B
:1002E00010E002C00FEF10E0B80183E00E94860525
:1002F000B8018DE00F900F90DF91CF911F910F917A
:100300000C94860546E451E060E080E192E00E94B2
:10031000E60145E451E061E080E192E00C94E60101
:1003200061E083E00E94620461E08DE00E9462046B
:1003300040E051EE60E070E08BE395E00E94E3085E
:100340000C94820180E192E00C9406030F930FE27B
:100350002BE34CE26BE375E080E192E00E94E10167
:100360000F9108950F93FC01DC01AA5ABD4F11961D
:100370001C921E92159711967C936E93108613967D
:100380004C9311972C9312960C9380E483838FE304
:1003900084831282199711961C921E9212961196BE
:1003A0001C921E92149781E08C931E96CF01845468
:1003B0009D4F1D921D92A817B907D9F717820F916B
:1003C00008950F930E94B2010F910895623350F483
:1003D0009C01260F311D260F311DF901E85AFD4FF2
:1003E000518340830895CF93DF93DB019C012B5A07
:1003F0003D4FFD01EB019881992361F0E90188816E
:10040000981302C06F5F7F4FFB0180818D936F5FF8
:100410007F4FEFCFE617F70710F41192FBCFDF9174
:10042000CF910895CF93DF93DC01F90191E08081B2
:10043000841390E0EB0188818083AB5ABD4F2C91EF
:10044000821302C091111082892FDF91CF910895FC
:100450006F927F928F929F92AF92BF92CF92DF92D4
:10046000EF92FF920F931F93CF93DF93EC017B01E9
:100470001D828B013C0185E0680E711C5E01EBEA78
:10048000AE1AEDEFBE0A4E01FCEA8F1AFDEF9F0A8D
:100490006801CE18DF089301F5014081B801CE0153
:1004A0000E941202F80191918F01911102C08823DC
:1004B00031F0F40120819213EBCF8111E9CFC60115
:1004C000DF91CF911F910F91FF90EF90DF90CF9030
:1004D000BF90AF909F908F907F906F900895BF9244
:1004E000CF92DF92EF92FF920F931F93CF93DF9300
:1004F0007C01B42E69016115710519F4D9016D9162
:100500007C91EB018E014B2DBE01C7010E94280298
:10051000892B29F42196F80180818111F3CFF8010C
:100520008081882391F04B2DB801C7010E942802D9
:10053000F801E80FF91F8081882311F010823196AD
:10054000D601ED93FC93C80102C080E090E0DF91FA
:10055000CF911F910F91FF90EF90DF90CF90BF90C0
:1005600008950F931F93CF93DF93FC01E75BFD4F3B
:100570002081222339F1213031F4BC01675F7F4FA4
:1005800022E0208302C060E070E0EC01C65BDD4F3A
:1005900028818C01045B1D4F222361F09C01225BAA
:1005A0003D4FFC01EC5AFD4F40810E946F02F80163
:1005B00091838083F80180819181892B19F081E0FA
:1005C000888301C080E0DF91CF911F910F91089542
:1005D000CF93DF93EC010E94B102FE01E55BFD4F7A
:1005E000882371F0DE01A65BBD4F81E08C93808390
:1005F000C45BDD4F88819981DF91CF910C94F30A20
:10060000108280E090E0DF91CF9108952F923F9289
:100610004F925F926F927F928F929F92AF92BF9212
:10062000CF92DF92EF92FF920F931F93CF93DF93BE
:10063000CDB7DEB72D970FB6F894DEBF0FBECDBF96
:100640008C017C012FEAE21A2DEFF20A5C0187EBA4
:10065000A81A8DEFB80A18019BEA291A9DEF390AEA
:10066000D801AD5ABD4FB987A887F801EA5AFD4FA6
:10067000FB87EA87C801855B9D4F9D878C87F801C2
:1006800087818111B6C0D7018D919C91DC01ED91DC
:10069000FC910480F581E02D0995892B09F4A9C00E
:1006A000F70180819181DC01ED91FC910480F5815D
:1006B000E02D0995811592400CF097C0D7018D91DE
:1006C0009C91DC01ED91FC910480F581E02D099570
:1006D0006C01A6012801B9E44B0E511CB201F701CF
:1006E000808191810E94950A812C912C3801F6E03D
:1006F0006F0E711CC801845B9D4F9B838A83D80158
:10070000A25BBD4FBD83AC83F801E65BFD4FFF8369
:10071000EE838C149D0409F4B2CFD2018D912D018A
:100720008983F50110829301D1014C91BE016F5F65
:100730007F4FC8010E9412022981E885F985308126
:10074000D80112969C911297F801E90FF11D23131D
:1007500019C0811117C01186992329F021E0F501F4
:10076000208316961C92F8011282AA81BB811D92E9
:100770001C92EC81FD8111821082E1E0AE81BF818B
:10078000EC930AC021879F5FD80112969C93129721
:1007900014968C91981738F7F5018081813009F50E
:1007A000C8010E94E802D80111968C93823390F41C
:1007B000EC85FD852081222369F09927FC01E45D09
:1007C000FE4FEE0FFF1FE00FF11F0190F081E02DB3
:1007D000309731F4AA85BB85ED91FC91309709F0F3
:1007E0000995BFEF8B1A9B0A94CFC12C82E0D82EBB
:1007F00070CF2D960FB6F894DEBF0FBECDBFDF9140
:10080000CF911F910F91FF90EF90DF90CF90BF900D
:10081000AF909F908F907F906F905F904F903F90A0
:100820002F90089590E0FC013197E131F10508F037
:1008300048C0EE58FF4F0C94EA0A809180008F77F1
:1008400003C0809180008F7D80938000089584B5DF
:100850008F7702C084B58F7D84BD08958091B000EC
:100860008F7703C08091B0008F7D8093B000089592
:10087000809190008F7707C0809190008F7D03C09A
:1008800080919000877F8093900008958091A000D0
:100890008F7707C08091A0008F7D03C08091A0005A
:1008A000877F8093A0000895809120018F7707C0F3
:1008B000809120018F7D03C080912001877F8093EC
:1008C00020010895CF93DF9390E0FC01E259FE4FA1
:1008D0002491FC01EC54FE4F8491882361F190E057
:1008E000880F991FFC01EC5EFD4FC591D491FC016E
:1008F000E650FE4FA591B491611109C09FB7F894DD
:100900008881209582238883EC912E230BC062304E
:1009100061F49FB7F8943881822F80958323888370
:10092000EC912E2B2C939FBF06C08FB7F894E881D3
:100930002E2B28838FBFDF91CF9108951F93CF93E4
:10094000DF93282F30E0F901E85DFE4F8491F90133
:10095000E259FE4FD491F901EC54FE4FC491CC23DF
:10096000C9F0162F81110E941204EC2FF0E0EE0F57
:10097000FF1FE650FE4FA591B4918FB7F894111167
:1009800005C09C91ED2FE095E92302C0EC91ED2B81
:10099000EC938FBFDF91CF911F9108951F920F921B
:1009A0000FB60F9211242F933F938F939F93AF9382
:1009B000BF938091CD049091CE04A091CF04B091CB
:1009C000D0043091CC0423E0230F2D3720F401967E
:1009D000A11DB11D05C026E8230F0296A11DB11D62
:1009E0002093CC048093CD049093CE04A093CF04A5
:1009F000B093D0048091D1049091D204A091D304FB
:100A0000B091D4040196A11DB11D8093D10490939F
:100A1000D204A093D304B093D404BF91AF919F911B
:100A20008F913F912F910F900FBE0F901F901895AF
:100A30002FB7F8946091CD047091CE048091CF04CB
:100A40009091D0042FBF0895789484B5826084BDBE
:100A500084B5816084BD85B5826085BD85B58160C2
:100A600085BDEEE6F0E0808181608083E1E8F0E022
:100A70001082808182608083808181608083E0E851
:100A8000F0E0808181608083E1EBF0E08081846030
:100A90008083E0EBF0E0808181608083E1E9F0E039
:100AA000808182608083808181608083E0E9F0E0E2
:100AB000808181608083E1EAF0E0808182608083D0
:100AC000808181608083E0EAF0E0808181608083C2
:100AD000E1E2F1E0808182608083808181608083B7
:100AE000E0E2F1E0808181608083EAE7F0E08081EC
:100AF0008460808380818260808380818160808344
:100B00008081806880831092C10008951F93CF93E5
:100B1000DF93182FEB0161E00E946204209711F42B
:100B200060E004C0CF3FD10539F461E0812FDF914F
:100B3000CF911F910C949E04E12FF0E0E85DFE4FF1
:100B4000E4914E2F50E0FA013197E131F10508F0C0
:100B500091C0ED57FF4F0C94EA0A84B5806884BDBC
:100B6000C7BD8DC084B5806284BDC8BD88C080917A
:100B70008000806880938000D0938900C0938800B3
:100B80007EC080918000806280938000D0938B0033
:100B9000C0938A0074C08091B00080688093B000D8
:100BA000C093B3006CC08091B00080628093B000AD
:100BB000C093B40064C080919000806880939000DE
:100BC000D0939900C09398005AC0809190008062A1
:100BD00080939000D0939B00C0939A0050C0809166
:100BE0009000886080939000D0939D00C0939C00FB
:100BF00046C08091A00080688093A0008091A000F2
:100C00008F7B8093A000D093A900C093A80037C029
:100C10008091A00080628093A000D093AB00C0932D
:100C2000AA002DC08091A00088608093A000D0937E
:100C3000AD00C093AC0023C08091200180688093F8
:100C40002001D0932901C093280119C0809120016F
:100C5000806280932001D0932B01C0932A010FC0A2
:100C600080912001886080932001D0932D01C09352
:100C70002C0105C0C038D1050CF057CF51CFDF9102
:100C8000CF911F910895FC0124853585F901E05C21
:100C9000FF4F80819181329620813181821B930B9D
:100CA0008F7399270895DC011C96ED91FC911D9797
:100CB000DF01A05CBF4F2D913C91119712968D9151
:100CC0009C9111972817390739F08D919C91E80F65
:100CD000F91F808190E008958FEF9FEF0895FC0148
:100CE000A485B585FD01E05CFF4F208131813296FE
:100CF000808191812817390779F080819181A80F2F
:100D0000B91F8C91208131812F5F3F4F2F73332783
:100D10003183208390E008958FEF9FEF0895FC01C9
:100D200081A1882329F0A489B5898C9186FFFBCF06
:100D300011A208950F931F93CF93DF93FC01A68513
:100D4000B7858D01005C1F4FE8018881998101966C
:100D50008F739927AD014E5B5F4FEA01288139817E
:100D600082179307D1F3E80128813981A20FB31FBD
:100D70006C93A685B785A05CBF4F11969C938E930C
:100D8000A689B7892C9181E090E0078C02C0880F7A
:100D9000991F0A94E2F7822B8C9381E081A3048847
:100DA000F589E02D80818064808381E090E0DF918F
:100DB000CF911F910F910895FB01E05CFF4F2081BF
:100DC00031812F5F3F4F2F733327DB01AE5BBF4F66
:100DD0004D915C912417350741F040815181DB0131
:100DE000A40FB51F8C9331832083089508951F921B
:100DF0000F920FB60F9211240BB60F922F933F93C1
:100E00004F935F936F937F938F939F93AF93BF9312
:100E1000EF93FF938091C00082FD07C08091C600D0
:100E200069E377E00E94DC0602C08091C600FF9172
:100E3000EF91BF91AF919F918F917F916F915F9152
:100E40004F913F912F910F900BBE0F900FBE0F90BF
:100E50001F90189508951F920F920FB60F921124AC
:100E60000BB60F922F933F934F935F936F937F93A4
:100E70008F939F93AF93BF93EF93FF938091C8009D
:100E800082FD07C08091CE0061EB76E00E94DC0617
:100E900002C08091CE00FF91EF91BF91AF919F91E1
:100EA0008F917F916F915F914F913F912F910F9013
:100EB0000BBE0F900FBE0F901F90189508951F92B4
:100EC0000F920FB60F9211240BB60F922F933F93F0
:100ED0004F935F936F937F938F939F93AF93BF9342
:100EE000EF93FF938091D00082FD07C08091D600E0
:100EF00069E276E00E94DC0602C08091D600FF9194
:100F0000EF91BF91AF919F918F917F916F915F9181
:100F10004F913F912F910F900BBE0F900FBE0F90EE
:100F20001F90189508951F920F920FB60F921124DB
:100F30000BB60F922F933F934F935F936F937F93D3
:100F40008F939F93AF93BF93EF93FF938091300163
:100F500082FD07C08091360161EA75E00E94DC06DF
:100F600002C080913601FF91EF91BF91AF919F91A7
:100F70008F917F916F915F914F913F912F910F9042
:100F80000BBE0F900FBE0F901F9018958BE395E04E
:100F90000E944306892B11F00E94F60689E195E034
:100FA0000E944306892B11F00E942A0787EF94E0E4
:100FB0000E944306892B11F00E945E0785ED94E0A4
:100FC0000E944306892B11F00C94920708951F92FA
:100FD0000F920FB60F9211240BB60F922F933F93DF
:100FE0008F939F93EF93FF932091350730913607AE
:100FF00080913707909138072817390731F480918D
:10100000C1008F7D8093C10014C0E0913707F0913B
:101010003807EB50F94F20818091370790913807BE
:1010200001968F7399279093380780933707209301
:10103000C600FF91EF919F918F913F912F910F905B
:101040000BBE0F900FBE0F901F9018951F920F921E
:101050000FB60F9211240BB60F922F933F938F93DD
:101060009F93EF93FF932091AD063091AE06809150
:10107000AF069091B0062817390731F48091C90066
:101080008F7D8093C90014C0E091AF06F091B00647
:10109000E359F94F20818091AF069091B0060196F7
:1010A0008F7399279093B0068093AF062093CE005C
:1010B000FF91EF919F918F913F912F910F900BBED8
:1010C0000F900FBE0F901F9018951F920F920FB6A2
:1010D0000F9211240BB60F922F933F938F939F93F0
:1010E000EF93FF93209125063091260680912706E5
:1010F000909128062817390731F48091D1008F7D0F
:101100008093D10014C0E0912706F0912806EB519E
:10111000FA4F2081809127069091280601968F73BF
:10112000992790932806809327062093D600FF9155
:10113000EF919F918F913F912F910F900BBE0F9048
:101140000FBE0F901F9018951F920F920FB60F921F
:1011500011240BB60F922F933F938F939F93EF938E
:10116000FF9320919D0530919E0580919F05909160
:10117000A0052817390731F4809131018F7D8093C4
:10118000310114C0E0919F05F091A005E35AFA4F98
:10119000208180919F059091A00501968F739927DA
:1011A0009093A00580939F0520933601FF91EF91C6
:1011B0009F918F913F912F910F900BBE0F900FBE7B
:1011C0000F901F901895CF92DF92EF92FF920F939E
:1011D0001F93CF93DF93EC016A017B014115514EC0
:1011E0006105710509F1EC89FD8981E090E008A0B5
:1011F00002C0880F991F0A94E2F7808360E079E0CB
:101200008DE390E0A70196010E94C80A89019A0126
:101210000150110921093109369527951795079530
:10122000980101151041A8F0EC89FD89108260E851
:1012300074E88EE190E0A70196010E94C80ADA01E5
:10124000C9010197A109B109B695A7959795879509
:101250009C01E889F9893083EA89FB89208319A2F6
:10126000EE89FF89408181E090E09C010C8C02C0F6
:10127000220F331F0A94E2F7242B2083EE89FF8983
:1012800040819C010D8C02C0220F331F0A94E2F7AB
:10129000242B2083EE89FF8940819C010E8C02C0A3
:1012A000220F331F0A94E2F7242B2083EE89FF8953
:1012B00020810F8C02C0880F991F0A94E2F7809555
:1012C00082238083DF91CF911F910F91FF90EF9048
:1012D000DF90CF900895CF92DF92EF92FF92EBE3F1
:1012E000F5E01382128288EEC82E83E0D82EE12C1E
:1012F000F12CC482D582E682F78264E072E07183C9
:10130000608389E397E09587848785EF96E09787E8
:10131000868785EC90E0918B808B84EC90E0938BBA
:10132000828B80EC90E0958B848B81EC90E0978BA6
:10133000868B82EC90E0918F808F86EC90E0938F8B
:10134000828F44E0448F33E0358F27E0268F95E08D
:10135000978F81E080A3E9E1F5E013821282C482D5
:10136000D582E682F78271836083A1EBB6E0B58710
:10137000A487ADE6B6E0B787A687ADECB0E0B18B49
:10138000A08BACECB0E0B38BA28BA8ECB0E0B58B3B
:10139000A48BA9ECB0E0B78BA68BAAECB0E0B18F20
:1013A000A08FAEECB0E0B38FA28F448F358F268F25
:1013B000978F80A3E7EFF4E013821282C482D58274
:1013C000E682F78271836083A9E2B6E0B587A487DD
:1013D000A5EEB5E0B787A687A5EDB0E0B18BA08BF1
:1013E000A4EDB0E0B38BA28BA0EDB0E0B58BA48BE5
:1013F000A1EDB0E0B78BA68BA2EDB0E0B18FA08FCE
:10140000A6EDB0E0B38FA28F448F358F268F978FD4
:1014100080A3E5EDF4E013821282C482D582E682D5
:10142000F7827183608361EA75E0758764876DE593
:1014300075E07787668765E371E0718B608B64E3A5
:1014400071E0738B628B60E371E0758B648B61E399
:1014500071E0778B668B62E371E0718F608F66E37A
:1014600071E0738F628F448F358F268F978F80A3A3
:10147000FF90EF90DF90CF900895CF92DF92EF92A0
:10148000FF920F931F93CF93DF936C01EB017B01CE
:10149000E40EF51E00E010E0CE15DF0561F0699165
:1014A000D601ED91FC910190F081E02DC6010995E6
:1014B000080F191FF1CFC801DF91CF911F910F9134
:1014C000FF90EF90DF90CF9008950F931F93CF93ED
:1014D000DF93EC010E941805688779878A879B87CC
:1014E000E881F9810680F781E02DCE01099597FF0B
:1014F00017C00E941805088519852A853B85DC01DF
:10150000CB01801B910BA20BB30B0C811D812E8193
:101510003F8180179107A207B30710F38FEF9FEF6A
:10152000DF91CF911F910F910895CF92DF92EF92AB
:10153000FF920F931F93CF93DF936C017A018B017E
:10154000C0E0D0E0CE15DF0561F0C6010E94650A5B
:1015500097FF02C07E0105C0F80181938F0121969B
:10156000F1CFC701DF91CF911F910F91FF90EF90C5
:10157000DF90CF9008950E9424050E949001C6EC50
:10158000D7E00E94A2012097E1F30E94C607F9CF9D
:10159000A1E21A2EAA1BBB1BFD010DC0AA1FBB1F77
:1015A000EE1FFF1FA217B307E407F50720F0A21BE9
:1015B000B30BE40BF50B661F771F881F991F1A9456
:1015C00069F760957095809590959B01AC01BD0180
:1015D000CF010895EE0FFF1F0024001C0BBE0790E3
:1015E000F691E02D0994FC0188279927E894219130
:1015F0002032E9F3293010F02E30C8F32B3241F0BD
:101600002D3239F4689404C00E94110B820F911D91
:10161000219120532A30C0F31EF4909581959F4F5D
:1016200008957AE0979F902D879F802D910D11242A
:061630000895F894FFCFBD
:10163600000000009A063D0A43066F0653068F0611
:00000001FF
