:100000000C949A000C94CB000C94CB000C94CB0075
:100010000C94CB000C94CB000C94CB000C94CB0034
:100020000C94CB000C94CB000C94CB000C94CB0024
:100030000C94CB000C94CB000C94CB000C94CB0014
:100040000C94CB000C94CB000C94CB000C94CB0004
:100050000C94CB000C94CB000C94CB000C94600659
:100060000C94CB000C9424080C9414090C94CB0031
:100070000C94CB000C94CB000C94CB000C94CB00D4
:100080000C94CB000C94CB000C94CB000C94CB00C4
:100090000C9458080C9453090C94CB000C94CB008E
:1000A0000C94CB000C94CB000C94CB000C94CB00A4
:1000B0000C94CB000C94CB000C94CB000C94CB0094
:1000C0000C94CB000C94CB000C94CB000C948C08BB
:1000D0000C9492090C94CB000C94C0080C94D10998
:1000E0000C94CB000C9417020C9470070C94F3083A
:1000F0000C94DC000C94D2000C94BB0B0C94B80153
:100100000C94BC070C9480070C949C070C94CD00B5
:100110000C94E1010C944D020C94C7070C9432022C
:100120000C949D010C94D7000C94FC010C94940A3F
:100130004D02940A11241FBECFEFD1E2DEBFCDBF26
:1001400000E00CBF12E0A0E0B2E0EEE9F9E100E06F
:100150000BBF02C007900D92A031B107D9F720E183
:10016000A0E1B2E001C01D92AD35B207E1F710E0A9
:10017000CAE9D0E000E006C021970109802FFE0106
:100180000E949F0CC839D10780E00807A9F70E9498
:1001900063070C94CD0C0C94000066E08CEC94E0AA
:1001A0000C94F00567E08CEC94E00C94F00568E0AA
:1001B0008CEC94E00C94F00569E08CEC94E00C94E9
:1001C000F00541EE51E064E080E192E00E94A90276
:1001D0004CEF51E065E080E192E00E94A90247E126
:1001E00052E06AE080E192E00E94A90242E352E01C
:1001F0006BE080E192E00E94A9024DEC50E066E0E5
:1002000080E192E00E94A90242ED50E067E080E1C7
:1002100092E00E94A90247ED50E068E080E192E0A0
:100220000E94A9024CED50E069E080E192E00E945A
:10023000A9024DE951E062E088E897E00E94A90236
:1002400048EB51E063E084E49AE00C94A90260E199
:1002500077E280E090E00E94DB0640E051EE60E053
:1002600070E08BE19EE00E94100A0C94E10080E1B6
:1002700092E00E94D6038CEC94E00E94D60388E8BA
:1002800097E00E94D60384E49AE00C94D603EF92A0
:10029000FF920F931F93CF93DF931F921F92CDB7BF
:1002A000DEB78C010E948103811103C019821A827A
:1002B00011C0F801E65BFD4F81E080833296E0805B
:1002C000F180B701C8010E94C602F70180818983CD
:1002D00081818A8389819A810F900F90DF91CF91DC
:1002E0001F910F91FF90EF9008950F931F93CF935D
:1002F000DF931F921F92CDB7DEB77A836983FC012B
:100300002081222399F08C01DC01AC5ABD4FEF5AB9
:10031000FD4F6C91808191810E94F80B6981C80129
:100320000E9406066A81C8010E9406060F900F907F
:10033000DF91CF911F910F910895CF93DF9388E8BC
:1003400097E00E944701EC0162E080E192E00E94A8
:10035000B602BE0180E192E00E94750128E833E117
:1003600041E060E080E192E0DF91CF910C94E30402
:100370000F931F93CF93DF9384E49AE00E94470189
:100380008C0184E49AE00E944701EC0163E080E183
:1003900092E00E94B602B80180E192E00E947501ED
:1003A000BE0180E192E00E94750128E833E141E05E
:1003B00060E080E192E0DF91CF911F910F910C946A
:1003C000E304CF93DF9380E192E00E944701EC01C8
:1003D00064E08CEC94E00E94B602BE018CEC94E0E8
:1003E0000E94750128E833E141E060E08CEC94E084
:1003F000DF91CF910C94E304CF93DF9380E192E0FF
:100400000E944701EC0165E08CEC94E00E94B6028A
:10041000BE018CEC94E00E94750128E833E141E0D4
:1004200060E08CEC94E0DF91CF910C94E304CF93E7
:10043000DF9380E192E00E944701EC016AE08CECDE
:1004400094E00E94B602BE018CEC94E00E9475011B
:1004500028E833E141E060E08CEC94E0DF91CF915B
:100460000C94E304CF93DF9380E192E00E94470174
:10047000EC016BE08CEC94E00E94B602BE018CECC7
:1004800094E00E94750128E833E141E060E08CECE3
:1004900094E0DF91CF910C94E3040F9380E09DE012
:1004A0000E942E060FE22BE34CE26BE17EE080E13E
:1004B00092E00E94A4022BE34CE269EF7DE08CEC19
:1004C00094E00E94A4022BE34CE267ED7DE088E813
:1004D00097E00E94A4022BE34CE265EB7DE084E40C
:1004E0009AE00E94A4020F9108950F93FC01DC0191
:1004F000AA5ABD4F11961C921E92159711967C9385
:100500006E93108613964C9311972C9312960C931E
:1005100080E483838FE384831282199711961C925F
:100520001E92129611961C921E92149781E08C9343
:100530001E96CF0184549D4F1D921D92A817B90796
:10054000D9F717820F9108950F930E9475020F91AA
:100550000895623350F49C01260F311D260F311D82
:10056000F901E85AFD4F518340830895FC018081D1
:1005700081110BC081E080838783EF5AFD4F4AE0F1
:1005800050E0808191810C94760C0895CF93DF9395
:10059000DB019C012B5A3D4FFD01EB019881992312
:1005A00061F0F9018081981302C06F5F7F4FEB010A
:1005B00098819D936F5F7F4FEFCFE617F70710F499
:1005C0001192FBCFDF91CF910895F901308121E0A5
:1005D000341320E0DB015C915083DC01AB5ABD4F4A
:1005E0008C91581303C0341301C01082822F0895D8
:1005F0006F927F928F929F92AF92BF92CF92DF9233
:10060000EF92FF920F931F93CF93DF93EC017B0147
:100610001D828B013C0185E0680E711C5E01EBEAD6
:10062000AE1AEDEFBE0A4E01FCEA8F1AFDEF9F0AEB
:100630006801CE18DF089301F5014081B801CE01B1
:100640000E94E502F80191918F01911102C0882367
:1006500031F0F40120819213EBCF8111E9CFC60173
:10066000DF91CF911F910F91FF90EF90DF90CF908E
:10067000BF90AF909F908F907F906F900895BF92A2
:10068000CF92DF92EF92FF920F931F93CF93DF935E
:100690006C01B42E79016115710519F4D9016D91C0
:1006A0007C91EB018E014B2DBE01C6010E94F80228
:1006B000892B29F42196F80180818111F3CFF8016B
:1006C0008081882391F04B2DB801C6010E94F80269
:1006D000F801E80FF91F8081882311F0108231960C
:1006E000D701ED93FC93C80102C080E090E0DF9158
:1006F000CF911F910F91FF90EF90DF90CF90BF901F
:1007000008950F931F93CF93DF93FC01E75BFD4F99
:100710002081222339F1213031F4BC01675F7F4F02
:1007200022E0208302C060E070E0EC01C65BDD4F98
:1007300028818C01045B1D4F222361F09C01225B08
:100740003D4FFC01EC5AFD4F40810E943F03F801F0
:1007500091838083F80180819181892B19F081E058
:10076000888301C080E0DF91CF911F910F910895A0
:10077000CF93DF93EC010E948103FE01E55BFD4F07
:10078000882371F0DE01A65BBD4F81E08C938083EE
:10079000C45BDD4F88819981DF91CF910C94A70CC8
:1007A000108280E090E0DF91CF9108952F923F92E8
:1007B0004F925F926F927F928F929F92AF92BF9271
:1007C000CF92DF92EF92FF920F931F93CF93DF931D
:1007D000CDB7DEB72D970FB6F894DEBF0FBECDBFF5
:1007E0008C017C012FEAE21A2DEFF20A5C0187EB03
:1007F000A81A8DEFB80A18019BEA291A9DEF390A49
:10080000D801AD5ABD4FB987A887F801EA5AFD4F04
:10081000FB87EA87C801855B9D4F9D878C87D80140
:1008200017968C918111B6C0F70180819181DC010E
:10083000ED91FC910480F581E02D1995892B09F447
:10084000A9C0F70180819181DC01ED91FC910480C8
:10085000F581E02D1995811592400CF097C0F701B4
:1008600080819181DC01ED91FC910480F581E02D86
:1008700019956C01A6012801B9E44B0E511CB20177
:10088000F701808191810E94960B812C912C380177
:10089000F6E06F0E711CC801845B9D4F9B838A83B9
:1008A000D801A25BBD4FBD83AC83F801E65BFD4F71
:1008B000FF83EE838C149D0409F4B1CFD2018D9196
:1008C0002D018983F50110829301D1014C91BE0164
:1008D0006F5F7F4FC8010E94E5022981E885F98595
:1008E0003081D80112969C911297F801E90FF11D01
:1008F000321319C0811117C01186992329F021E004
:10090000F501208316961C92F8011282AA81BB8100
:100910001D921C92EC81FD8111821082E1E0AE817A
:10092000BF81EC930AC021879F5FD80112969C93E8
:10093000129714968C91981738F7F50180818130C1
:1009400009F5C8010E94B803D80111968C9382332F
:1009500090F4EC85FD852081222369F0FC01FF27BE
:10096000E45DFE4FEE0FFF1FE00FF11F0190F081DD
:10097000E02D309731F4AA85BB85ED91FC9130973D
:1009800009F01995BFEF8B1A9B0A94CFC12C82E016
:10099000D82E70CF2D960FB6F894DEBF0FBECDBF08
:1009A000DF91CF911F910F91FF90EF90DF90CF904B
:1009B000BF90AF909F908F907F906F905F904F907F
:1009C0003F902F9008952F923F924F925F926F9297
:1009D0007F928F929F92AF92BF92CF92DF92EF92CF
:1009E000FF920F931F93CF93DF93CDB7DEB7659739
:1009F0000FB6F894DEBF0FBECDBF8C01F62EE42EED
:100A00006901DC018C91882309F4CCC0F801ED5A0E
:100A1000FD4FFB83EA831801FFEA2F1AFDEF3F0A1F
:100A2000AA81BB816C91F101808191810E94F80BB8
:100A3000D80118968C91882329F0F1018081918149
:100A40000E94FF0BFF2009F4ADC00E94AA062B01F3
:100A50003C014B015C01F12CC601A0E0B0E08C83AD
:100A60009D83AE83BF83680197EBC91A9DEFD90AB6
:100A7000D8011696B987A887F801EB5AFD4FFB8776
:100A8000EA872E2D30E03D872C87C801855B9D4F7E
:100A90009F878E87EE24E394AA5BBD4FB98BA88B0A
:100AA0003797FB8BEA8B9801265B3D4F3D8B2C8B58
:100AB00084189508A608B7088C819D81AE81BF81F6
:100AC00088169906AA06BB0608F06DC0F1106BC027
:100AD0000E94AA064B015C01D1018D919C91DC0121
:100AE000ED91FC910480F581E02D1995892B01F39E
:100AF000F10180819181DC01ED91FC910680F7810B
:100B0000E02D19958983F601108228853985AA85FB
:100B1000BB854C91BE016F5F7F4FC8010E94E5020B
:100B20002981EA81FB813081D80112969C9112972C
:100B3000F801E90FF11D321317C0811115C011869C
:100B4000992321F0F601E08216961C92F801128298
:100B5000A889B9891D921C92EA89FB8911821082A9
:100B6000AC89BD89EC9207C021879F5FF801928311
:100B70008481981758F7D6018C91813009F098CF6D
:100B8000C8010E94B803EC85FD858E179F0709F008
:100B90008FCFAE85BF858C91882309F489CFFF2440
:100BA000F39486CFF12CF801178210828F2D659671
:100BB0000FB6F894DEBF0FBECDBFDF91CF911F916E
:100BC0000F91FF90EF90DF90CF90BF90AF909F90EC
:100BD0008F907F906F905F904F903F902F900895EF
:100BE000CF93DF93FC01208121110CC0EC010E9406
:100BF000B60228E833E141E060E0CE01DF91CF9119
:100C00000C94E30480E0DF91CF9108950F931F933C
:100C1000CF93C62FFC01EC5AFD4F208131968C01F9
:100C20000F5A1D4F261759F0DC01AD5ABD4F8C915C
:100C3000681729F08081681711F0611106C0608182
:100C4000F801808191810E94F80B6C2FF80180815E
:100C50009181CF911F910F910C94F80BCF92DF925D
:100C6000EF92FF92CF93DF93EC010E94AA067E01E0
:100C70002CE8E20EF11CFE01B8966E019E01245C88
:100C80003F4FD7011D927D0111921192D6016D93B4
:100C90007D938D939D936D01AF01425B5F4FDA01B0
:100CA0001D921C92E217F30761F7C655DF4F1982B8
:100CB0001882DF91CF91FF90EF90DF90CF90089551
:100CC0001F920F920FB60F9211242F933F938F9381
:100CD0009F93AF93BF938091AD0D9091AE0DA09176
:100CE000AF0DB091B00D3091AC0D23E0230F2D3737
:100CF00020F40196A11DB11D05C026E8230F029620
:100D0000A11DB11D2093AC0D8093AD0D9093AE0D40
:100D1000A093AF0DB093B00D8091B10D9091B20D35
:100D2000A091B30DB091B40D0196A11DB11D80939A
:100D3000B10D9093B20DA093B30DB093B40DBF91CC
:100D4000AF919F918F913F912F910F900FBE0F9078
:100D50001F9018952FB7F8946091AD0D7091AE0D5E
:100D60008091AF0D9091B00D2FBF08953FB7F894CB
:100D70008091B10D9091B20DA091B30DB091B40DD1
:100D800026B5A89B05C02F3F19F00196A11DB11DE6
:100D90003FBFBA2FA92F982F8827820F911DA11D21
:100DA000B11DBC01CD0142E0660F771F881F991F5E
:100DB0004A95D1F70895CF92DF92EF92FF92CF93A9
:100DC000DF936B017C010E94B606EB01C114D104D4
:100DD000E104F10479F00E94B6066C1B7D0B683EBD
:100DE0007340A0F381E0C81AD108E108F108C851A6
:100DF000DC4FECCFDF91CF91FF90EF90DF90CF9061
:100E00000895789484B5826084BD84B5816084BD82
:100E100085B5826085BD85B5816085BDEEE6F0E073
:100E2000808181608083E1E8F0E0108280818260CF
:100E30008083808181608083E0E8F0E08081816050
:100E40008083E1EBF0E0808184608083E0EBF0E080
:100E5000808181608083E1E9F0E08081826080832D
:100E6000808181608083E0E9F0E08081816080831F
:100E7000E1EAF0E08081826080838081816080830C
:100E8000E0EAF0E0808181608083E1E2F1E080814E
:100E900082608083808181608083E0E2F1E08081F4
:100EA00081608083EAE7F0E08081846080838081D4
:100EB000826080838081816080838081806880837C
:100EC0001092C10008950E9401070E942701C3EFFC
:100ED000D8E00E9437012097E1F30E94F308F9CF90
:100EE000FC0124853585F901E05CFF4F808191810B
:100EF000329620813181821B930B8F73992708953D
:100F0000DC011C96ED91FC911D97DF01A05CBF4FA9
:100F10002D913C91119712968D919C9111972817C4
:100F2000390739F08D919C91E80FF91F808190E08D
:100F300008958FEF9FEF0895FC01A485B585FD010D
:100F4000E05CFF4F208131813296808191812817AA
:100F5000390779F080819181A80FB91F8C91208188
:100F600031812F5F3F4F2F7333273183208390E0F0
:100F700008958FEF9FEF0895FC0181A1882329F048
:100F8000A489B5898C9186FFFBCF11A208950F9398
:100F90001F93CF93DF93FC01A685B7858D01005C7D
:100FA0001F4FE8018881998101968F739927AD01C0
:100FB0004E5B5F4FEA012881398128173907D1F349
:100FC000E80128813981A20FB31F6C93A685B785EC
:100FD000A05CBF4F11969C938E93A689B7892C91E4
:100FE00081E090E0078C02C0880F991F0A94E2F715
:100FF000822B8C9381E081A30488F589E02D808188
:101000008064808381E090E0DF91CF911F910F9108
:101010000895FB01E05CFF4F20813181DB01AE5B75
:10102000BF4F4D915C912F5F3F4F2F733327421776
:10103000530741F040815181DB01A40FB51F8C9310
:1010400031832083089508951F920F920FB60F9257
:1010500011240BB60F922F933F934F935F936F938F
:101060007F938F939F93AF93BF93EF93FF93809161
:10107000C00082FD07C08091C60069E170E10E9456
:10108000090802C08091C600FF91EF91BF91AF9116
:101090009F918F917F916F915F914F913F912F9190
:1010A0000F900BBE0F900FBE0F901F9018950895D4
:1010B0001F920F920FB60F9211240BB60F922F931F
:1010C0003F934F935F936F937F938F939F93AF93D0
:1010D000BF93EF93FF938091C80082FD07C080917A
:1010E000CE0061E97FE00E94090802C08091CE0035
:1010F000FF91EF91BF91AF919F918F917F916F91F0
:101100005F914F913F912F910F900BBE0F900FBEAB
:101110000F901F90189508951F920F920FB60F927F
:1011200011240BB60F922F933F934F935F936F93BE
:101130007F938F939F93AF93BF93EF93FF93809190
:10114000D00082FD07C08091D60069E07FE00E9458
:10115000090802C08091D600FF91EF91BF91AF9135
:101160009F918F917F916F915F914F913F912F91BF
:101170000F900BBE0F900FBE0F901F901895089503
:101180001F920F920FB60F9211240BB60F922F934E
:101190003F934F935F936F937F938F939F93AF93FF
:1011A000BF93EF93FF938091300182FD07C0809140
:1011B000360161E87EE00E94090802C08091360194
:1011C000FF91EF91BF91AF919F918F917F916F911F
:1011D0005F914F913F912F910F900BBE0F900FBEDB
:1011E0000F901F9018958BE19EE00E947007892B4D
:1011F00011F00E94230889EF9DE00E947007892B5F
:1012000011F00E94570887ED9DE00E947007892B1E
:1012100011F00E948B0885EB9DE00E947007892BDE
:1012200011F00C94BF0808951F920F920FB60F9201
:1012300011240BB60F922F933F938F939F93EF93AD
:10124000FF932091151030911610809117109091F6
:1012500018102817390731F48091C1008F7D8093D1
:10126000C10014C0E0911710F0911810EB52F04F2C
:101270002081809117109091181001968F739927F3
:1012800090931810809317102093C600FF91EF9150
:101290009F918F913F912F910F900BBE0F900FBE9A
:1012A0000F901F9018951F920F920FB60F92112456
:1012B0000BB60F922F933F938F939F93EF93FF93D0
:1012C00020918D0F30918E0F80918F0F9091900F04
:1012D0002817390731F48091C9008F7D8093C900A8
:1012E00014C0E0918F0FF091900FE35BF04F2081DD
:1012F00080918F0F9091900F01968F739927909303
:10130000900F80938F0F2093CE00FF91EF919F91CC
:101310008F913F912F910F900BBE0F900FBE0F90AA
:101320001F9018951F920F920FB60F9211240BB6B3
:101330000F922F933F938F939F93EF93FF9320915F
:10134000050F3091060F8091070F9091080F281715
:10135000390731F48091D1008F7D8093D10014C082
:10136000E091070FF091080FEB53F14F208180912E
:10137000070F9091080F01968F7399279093080F8C
:101380008093070F2093D600FF91EF919F918F914B
:101390003F912F910F900BBE0F900FBE0F901F909B
:1013A00018951F920F920FB60F9211240BB60F9241
:1013B0002F933F938F939F93EF93FF9320917D0EF5
:1013C00030917E0E80917F0E9091800E2817390704
:1013D00031F4809131018F7D8093310114C0E0910F
:1013E0007F0EF091800EE35CF14F208180917F0EA3
:1013F0009091800E01968F7399279093800E809321
:101400007F0E20933601FF91EF919F918F913F9135
:101410002F910F900BBE0F900FBE0F901F9018953D
:10142000CF92DF92EF92FF92CF93DF93EC016A01AC
:101430007B014115514E6105710509F1EC89FD896A
:1014400081E090E008A002C0880F991F0A94E2F79B
:10145000808360E079E08DE390E0A70196010E942F
:101460007D0CDA01C9010197A109B109B695A795CB
:10147000979587959C01211580E13807A8F0EC89A4
:10148000FD89108260E874E88EE190E0A701960182
:101490000E947D0CDA01C9010197A109B109B69535
:1014A000A795979587959C01E889F9893083EA8902
:1014B000FB89208319A2EE89FF89408181E090E0B9
:1014C0009C010C8C02C0220F331F0A94E2F7242BDC
:1014D0002083EE89FF8940819C010D8C02C0220F80
:1014E000331F0A94E2F7242B2083EE89FF89408181
:1014F0009C010E8C02C0220F331F0A94E2F7242BAA
:101500002083EE89FF8920810F8C02C0880F991FEC
:101510000A94E2F7809582238083DF91CF91FF9038
:10152000EF90DF90CF900895CF92DF92EF92FF92ED
:10153000EBE1FEE01382128288EEC82E83E0D82E03
:10154000E12CF12CC482D582E682F78264E072E05D
:101550007183608389E190E19587848785ED9FE0C1
:101560009787868785EC90E0918B808B84EC90E068
:10157000938B828B80EC90E0958B848B81EC90E058
:10158000978B868B82EC90E0918F808F86EC90E039
:10159000938F828F44E0448F33E0358F27E0268F8E
:1015A00095E0978F81E080A3E9EFFDE0138212823E
:1015B000C482D582E682F78271836083A1E9BFE0AD
:1015C000B587A487ADE4BFE0B787A687ADECB0E0F0
:1015D000B18BA08BACECB0E0B38BA28BA8ECB0E0ED
:1015E000B58BA48BA9ECB0E0B78BA68BAAECB0E0CE
:1015F000B18FA08FAEECB0E0B38FA28F448F358F48
:10160000268F978F80A3E7EDFDE013821282C482BC
:10161000D582E682F78271836083A9E0BFE0B58757
:10162000A487A5ECBEE0B787A687A5EDB0E0B18B97
:10163000A08BA4EDB0E0B38BA28BA0EDB0E0B58B96
:10164000A48BA1EDB0E0B78BA68BA2EDB0E0B18F7B
:10165000A08FA6EDB0E0B38FA28F448F358F268F79
:10166000978F80A3E5EBFDE013821282C482D582BE
:10167000E682F7827183608361E87EE07587648724
:101680006DE37EE07787668765E371E0718B608B41
:1016900064E371E0738B628B60E371E0758B648B44
:1016A00061E371E0778B668B62E371E0718F608F2D
:1016B00066E371E0738F628F448F358F268F978F2B
:1016C00080A3FF90EF90DF90CF9008950F931F932A
:1016D000CF93DF93EC010E94AA06688779878A87F7
:1016E0009B87E881F9810680F781E02DCE0119956D
:1016F00097FF17C00E94AA06088519852A853B8591
:10170000DC01CB01801B910BA20BB30B0C811D8163
:101710002E813F8180179107A207B30710F38FEF47
:101720009FEFDF91CF911F910F910895CF92DF929C
:10173000EF92FF920F931F93CF93DF936C017A0187
:101740008B01C0E0D0E0CE15DF0559F0C6010E9444
:10175000660B97FD05C0F80181938F012196F3CFA9
:101760007E01C701DF91CF911F910F91FF90EF9004
:10177000DF90CF900895CF92DF92EF92FF920F9378
:101780001F93CF93DF936C01EB017B01E40EF51EF9
:1017900000E010E0CE15DF0561F06991D601ED9112
:1017A000FC910190F081E02DC6011995080F191FD9
:1017B000F1CFC801DF91CF911F910F91FF90EF9072
:1017C000DF90CF9008956115710579F0FB010190CC
:1017D0000020E9F73197AF01461B570BDC01ED9173
:1017E000FC910280F381E02D199480E090E008954F
:1017F000DC01ED91FC910190F081E02D19940F93A3
:101800001F93CF93DF93EC016DE00E94F80B8C01E6
:101810006AE0CE010E94F80B800F911FDF91CF91FB
:101820001F910F9108958F929F92AF92BF92CF9286
:10183000DF92EF92FF920F931F93CF93DF93CDB779
:10184000DEB7A1970FB6F894DEBF0FBECDBF6C0117
:10185000142FE52FCB01022F19A2223008F40AE041
:101860007E0121E2E20EF11C802E912CA12CB12CE4
:10187000612F7E2FA50194010E947D0C029F1019FB
:10188000112481E0E81AF1081A3014F4105D01C047
:10189000195CF7011083122FE32FCA01232B242B8D
:1018A000252B31F7B701C6010E94E30BA1960FB6B5
:1018B000F894DEBF0FBECDBFDF91CF911F910F9186
:1018C000FF90EF90DF90CF90BF90AF909F908F9060
:1018D00008952115310541F4DC01ED91FC91019051
:1018E000F081E02D642F19940C94130C9A01462F6B
:1018F00050E060E070E00C94690CA1E21A2EAA1B83
:10190000BB1BFD010DC0AA1FBB1FEE1FFF1FA217AF
:10191000B307E407F50720F0A21BB30BE40BF50BAC
:10192000661F771F881F991F1A9469F76095709535
:10193000809590959B01AC01BD01CF010895EE0FFC
:10194000FF1F881F8BBF0790F691E02D1994FC01B3
:1019500088279927E89421912032E9F3293010F063
:101960002E30C8F32B3241F02D3239F4689404C084
:101970000E94C50C820F911D219120532A30C0F383
:101980001EF4909581959F4F08957AE0979F902D32
:0E199000879F802D910D11240895F894FFCFAC
:10199E0000000000C707BB0B70079C078007BC0741
:00000001FF
