:100000000C945E000C9486000C9486000C94860080
:100010000C9486000C9486000C9486000C94860048
:100020000C9486000C9486000C9486000C94860038
:100030000C9486000C9486000C9486000C94860028
:100040000C94EA030C9486000C9474050C94B70588
:100050000C9486000C9486000C9486000C94860008
:100060000C9486000C94860000000007000201003A
:100070000003040600000000000000000102040864
:100080001020408001020408102001020408102002
:10009000040404040404040402020202020203032E
:1000A0000303030300000000250028002B000000CC
:1000B0000000240027002A00E9007A0611241FBE50
:1000C000CFEFD8E0DEBFCDBF11E0A0E0B1E0E0E2CD
:1000D000FFE002C005900D92A031B107D9F724E0EE
:1000E000A0E1B1E001C01D92AF37B207E1F710E027
:1000F000CEE5D0E004C02197FE010E946207CC3516
:10010000D107C9F70E9433070C948E070C940000A6
:1001100008950F931F93CF93DF9300D0CDB7DEB731
:1001200080E191E00E94F401811103C019821A82DA
:1001300011C081E080935A0300915C0310915D032C
:10014000B80180E191E00E943601F8018081898345
:1001500081818A8309811A810F3F110509F02CF4EE
:1001600017FF05C000E010E002C00FEF10E0B8017B
:1001700083E00E947B04B8018DE00F900F90DF9127
:10018000CF911F910F910C947B0449E850E060E0FF
:1001900080E191E00E94290148E850E061E080E1BF
:1001A00091E00C94290161E083E00E947E0361E00C
:1001B0008DE00E947E0340E051EE60E070E085ED4E
:1001C00093E00E94F2050C94C50080E191E00C944C
:1001D00049020F930FE22BE34CE265ED73E080E1FF
:1001E00091E00E9424010F9108950F93FC01DC011E
:1001F000AA5ABD4F11961C921E92159711967C9388
:100200006E93108613964C9311972C9312960C9321
:1002100080E483838FE384831282199711961C9262
:100220001E92129611961C921E92149781E08C9346
:100230001E96CF0184549D4F1D921D92A817B90799
:10024000D9F717820F9108950F930E94F5000F912F
:100250000895623350F49C01260F311D260F311D85
:10026000F901E85AFD4F518340830895CF93DF93FE
:10027000DB019C012B5A3D4FFD01EB019881992335
:1002800061F0E9018881981302C06F5F7F4FFB0125
:1002900080818D936F5F7F4FEFCFE617F70710F4E4
:1002A0001192FBCFDF91CF910895CF93DF93DC01C3
:1002B000F90191E08081841390E0EB0188818083D3
:1002C000AB5ABD4F2C91821302C091111082892F1D
:1002D000DF91CF9108956F927F928F929F92AF920C
:1002E000BF92CF92DF92EF92FF920F931F93CF9323
:1002F000DF93EC017B011D828B013C0185E0680EE0
:10030000711C5E01EBEAAE1AEDEFBE0A4E01FCEA8B
:100310008F1AFDEF9F0A6801CE18DF089301F501DF
:100320004081B801CE010E945501F80191918F01E1
:10033000911102C0882331F0F40120819213EBCF98
:100340008111E9CFC601DF91CF911F910F91FF90ED
:10035000EF90DF90CF90BF90AF909F908F907F9065
:100360006F900895BF92CF92DF92EF92FF920F931A
:100370001F93CF93DF937C01B42E69016115710542
:1003800019F4D9016D917C91EB018E014B2DBE01C9
:10039000C7010E946B01892B29F42196F801808105
:1003A0008111F3CFF8018081882391F04B2DB801A2
:1003B000C7010E946B01F801E80FF91F80818823B3
:1003C00011F010823196D601ED93FC93C80102C062
:1003D00080E090E0DF91CF911F910F91FF90EF901F
:1003E000DF90CF90BF9008950F931F93CF93DF932B
:1003F000FC01E75BFD4F2081222339F1213031F4EC
:10040000BC01675F7F4F22E0208302C060E070E0A4
:10041000EC01C65BDD4F28818C01045B1D4F22235C
:1004200061F09C01225B3D4FFC01EC5AFD4F408185
:100430000E94B201F80191838083F801808191814B
:10044000892B19F081E0888301C080E0DF91CF9192
:100450001F910F910895CF93DF93EC010E94F40157
:10046000FE01E55BFD4F882371F0DE01A65BBD4F09
:1004700081E08C938083C45BDD4F88819981DF911B
:10048000CF910C946807108280E090E0DF91CF91CB
:1004900008952F923F924F925F926F927F928F9228
:1004A0009F92AF92BF92CF92DF92EF92FF920F9303
:1004B0001F93CF93DF93CDB7DEB72D970FB6F89488
:1004C000DEBF0FBECDBF8C017C012FEAE21A2DEFFB
:1004D000F20A5C0187EBA81A8DEFB80A18019BEAB3
:1004E000291A9DEF390AD801AD5ABD4FB987A8879F
:1004F000F801EA5AFD4FFB87EA87C801855B9D4FEB
:100500009D878C87F80187818111B6C0D7018D91B5
:100510009C91DC01ED91FC910480F581E02D099521
:10052000892B09F4A9C0F70180819181DC01ED914B
:10053000FC910480F581E02D0995811592400CF025
:1005400097C0D7018D919C91DC01ED91FC910480C5
:10055000F581E02D09956C01A6012801B9E44B0E47
:10056000511CB201F701808191810E940D07812CFD
:10057000912C3801F6E06F0E711CC801845B9D4F11
:100580009B838A83D801A25BBD4FBD83AC83F801F6
:10059000E65BFD4FFF83EE838C149D0409F4B2CF1C
:1005A000D2018D912D018983F50110829301D10132
:1005B0004C91BE016F5F7F4FC8010E945501298198
:1005C000E885F9853081D80112969C911297F8013F
:1005D000E90FF11D231319C0811117C0118699234A
:1005E00029F021E0F501208316961C92F801128271
:1005F000AA81BB811D921C92EC81FD811182108227
:10060000E1E0AE81BF81EC930AC021879F5FD801F2
:1006100012969C93129714968C91981738F7F501BF
:100620008081813009F5C8010E942B02D801119602
:100630008C93823390F4EC85FD852081222369F030
:100640009927FC01E45DFE4FEE0FFF1FE00FF11F45
:100650000190F081E02D309731F4AA85BB85ED91B2
:10066000FC91309709F00995BFEF8B1A9B0A94CF44
:10067000C12C82E0D82E70CF2D960FB6F894DEBF35
:100680000FBECDBFDF91CF911F910F91FF90EF90E3
:10069000DF90CF90BF90AF909F908F907F906F90A2
:1006A0005F904F903F902F900895833081F028F411
:1006B000813099F08230A1F008958630A9F087301A
:1006C000B9F08430D1F4809180008F7D03C0809197
:1006D00080008F7780938000089584B58F7702C063
:1006E00084B58F7D84BD08958091B0008F7703C05D
:1006F0008091B0008F7D8093B0000895CF93DF93F9
:1007000090E0FC01E458FF4F2491FC01E057FF4FBB
:100710008491882361F190E0880F991FFC01E255D4
:10072000FF4FC591D491FC01EC55FF4FA591B491B9
:10073000611109C09FB7F89488812095822388832E
:10074000EC912E230BC0623061F49FB7F89438818E
:10075000822F809583238883EC912E2B2C939FBF2F
:1007600006C08FB7F894E8812E2B28838FBFDF91C6
:10077000CF9108951F93CF93DF93282F30E0F90195
:10078000E859FF4F8491F901E458FF4FD491F901E2
:10079000E057FF4FC491CC23C9F0162F81110E945E
:1007A0005503EC2FF0E0EE0FFF1FEC55FF4FA59126
:1007B000B4918FB7F894111105C09C91ED2FE0957D
:1007C000E92302C0EC91ED2BEC938FBFDF91CF9129
:1007D0001F9108951F920F920FB60F9211242F931D
:1007E0003F938F939F93AF93BF938091CD0390914D
:1007F000CE03A091CF03B091D0033091CC0323E07E
:10080000230F2D3720F40196A11DB11D05C026E848
:10081000230F0296A11DB11D2093CC038093CD031D
:100820009093CE03A093CF03B093D0038091D103D4
:100830009091D203A091D303B091D4030196A11D4E
:10084000B11D8093D1039093D203A093D303B093AF
:10085000D403BF91AF919F918F913F912F910F90B2
:100860000FBE0F901F9018952FB7F8946091CD038D
:100870007091CE038091CF039091D0032FBF089544
:10088000789484B5826084BD84B5816084BD85B56B
:10089000826085BD85B5816085BDEEE6F0E0808132
:1008A00081608083E1E8F0E0108280818260808353
:1008B000808181608083E0E8F0E0808181608083D6
:1008C000E1EBF0E0808184608083E0EBF0E0808108
:1008D00081608083EAE7F0E08081846080838081AA
:1008E0008260808380818160808380818068808352
:1008F0001092C10008951F93CF93DF93182FEB013F
:1009000061E00E947E03209711F460E004C0CF3FB5
:10091000D10539F461E0812FDF91CF911F910C94C3
:10092000BA03E12FF0E0E859FF4FE491E330F9F02A
:1009300048F4E130B9F0E230A1F584B5806284BDBD
:10094000C8BD34C0E630E9F0E73019F1E43049F5CC
:1009500080918000806280938000D0938B00C09350
:100960008A0024C084B5806884BDC7BD1FC0809143
:100970008000806880938000D0938900C0938800B5
:1009800015C08091B00080688093B000C093B30020
:100990000DC08091B00080628093B000C093B4001D
:1009A00005C0C038D1050CF0B5CFAFCFDF91CF91E6
:1009B0001F910895FC0124853585F901E05CFF4F06
:1009C00080819181329620813181821B930B8F73BC
:1009D00099270895DC011C96ED91FC911D97DF018C
:1009E000A05CBF4F2D913C91119712968D919C91D7
:1009F00011972817390739F08D919C91E80FF91F4D
:100A0000808190E008958FEF9FEF0895FC01A48509
:100A1000B585FD01E05CFF4F2081318132968081F8
:100A200091812817390779F080819181A80FB91F2A
:100A30008C91208131812F5F3F4F2F73332731837A
:100A4000208390E008958FEF9FEF0895FC0181A12E
:100A5000882329F0A489B5898C9186FFFBCF11A248
:100A600008950F931F93CF93DF93FC01A685B7855D
:100A70008D01005C1F4FE8018881998101968F7379
:100A80009927AD014E5B5F4FEA01288139818217BA
:100A90009307D1F3E80128813981A20FB31F6C932A
:100AA000A685B785A05CBF4F11969C938E93A689AF
:100AB000B7892C9181E090E0078C02C0880F991FC4
:100AC0000A94E2F7822B8C9381E081A30488F58954
:100AD000E02D80818064808381E090E0DF91CF9180
:100AE0001F910F91089508951F920F920FB60F92C4
:100AF00011242F934F935F938F939F93EF93FF93C3
:100B00008091C00082FD1CC02091C60080917B04B2
:100B100090917C0401968F73992740917D045091A8
:100B20007E048417950771F0E0917B04F0917C04BA
:100B3000E55CFB4F208390937C0480937B0402C090
:100B40008091C600FF91EF919F918F915F914F919E
:100B50002F910F900FBE0F901F90189585ED93E089
:100B60000E94DA04892B11F00C94730508951F92EA
:100B70000F920FB60F9211242F933F938F939F9351
:100B8000EF93FF932091370430913804809139041A
:100B900090913A042817390731F48091C1008F7D74
:100BA0008093C10014C0E0913904F0913A04E950F7
:100BB000FC4F20818091390490913A0401968F7303
:100BC000992790933A04809339042093C600FF91AB
:100BD000EF919F918F913F912F910F900FBE0F90AA
:100BE0001F901895CF92DF92EF92FF920F931F9371
:100BF000CF93DF93EC016A017B014115514E6105F2
:100C0000710509F1EC89FD8981E090E008A002C03E
:100C1000880F991F0A94E2F7808360E079E08DE302
:100C200090E0A70196010E94400789019A010150B6
:100C300011092109310936952795179507959801CE
:100C400001151041A8F0EC89FD89108260E874E874
:100C50008EE190E0A70196010E944007DA01C901E8
:100C60000197A109B109B695A795979587959C011C
:100C7000E889F9893083EA89FB89208319A2EE8902
:100C8000FF89408181E090E09C010C8C02C0220F22
:100C9000331F0A94E2F7242B2083EE89FF894081D9
:100CA0009C010D8C02C0220F331F0A94E2F7242B03
:100CB0002083EE89FF8940819C010E8C02C0220FA7
:100CC000331F0A94E2F7242B2083EE89FF892081C9
:100CD0000F8C02C0880F991F0A94E2F78095822337
:100CE0008083DF91CF911F910F91FF90EF90DF9064
:100CF000CF900895E5EDF3E01382128288EE93E041
:100D0000A0E0B0E084839583A683B78384E091E07C
:100D1000918380838BE394E09587848787EF93E0CA
:100D20009787868785EC90E0918B808B84EC90E0B0
:100D3000938B828B80EC90E0958B848B81EC90E0A0
:100D4000978B868B82EC90E0918F808F86EC90E081
:100D5000938F828F84E0848F83E0858F87E0868FF6
:100D600085E0878F81E080A30895CF92DF92EF9294
:100D7000FF920F931F93CF93DF936C01EB017B01E5
:100D8000E40EF51E00E010E0CE15DF0561F069917C
:100D9000D601ED91FC910190F081E02DC6010995FD
:100DA000080F191FF1CFC801DF91CF911F910F914B
:100DB000FF90EF90DF90CF9008950F931F93CF9304
:100DC000DF93EC010E943404688779878A879B87C8
:100DD000E881F9810680F781E02DCE01099597FF22
:100DE00017C00E943404088519852A853B85DC01DB
:100DF000CB01801B910BA20BB30B0C811D812E81AB
:100E00003F8180179107A207B30710F38FEF9FEF81
:100E1000DF91CF911F910F910895CF92DF92EF92C2
:100E2000FF920F931F93CF93DF936C017A018B0195
:100E3000C0E0D0E0CE15DF0561F0C6010E94DD06FE
:100E400097FF02C07E0105C0F80181938F012196B2
:100E5000F1CFC701DF91CF911F910F91FF90EF90DC
:100E6000DF90CF9008950E9440040E94D300CEEA04
:100E7000D5E00E94E5002097E1F30E94AE05F9CF8E
:100E8000A1E21A2EAA1BBB1BFD010DC0AA1FBB1F8E
:100E9000EE1FFF1FA217B307E407F50720F0A21B00
:100EA000B30BE40BF50B661F771F881F991F1A946D
:100EB00069F760957095809590959B01AC01BD0197
:100EC000CF010895EE0FFF1F0590F491E02D0994D6
:100ED000FC0188279927E89421912032E9F32930F1
:100EE00010F02E30C8F32B3241F02D3239F46894D3
:100EF00004C00E948607820F911D219120532A3041
:100F0000C0F31EF4909581959F4F08957AE0979FC6
:100F1000902D879F802D910D11240895F894FFCF77
:100F2000000000003105B506DA040605EA042605CE
:00000001FF
